{
  "_format": "hh-sol-artifact-1",
  "contractName": "MainChain",
  "sourceName": "contracts/Chain.sol",
  "abi": [
    {
      "inputs": [
        {
          "internalType": "uint256",
          "name": "",
          "type": "uint256"
        }
      ],
      "name": "Users",
      "outputs": [
        {
          "internalType": "address",
          "name": "publicAddress",
          "type": "address"
        },
        {
          "internalType": "string",
          "name": "role",
          "type": "string"
        }
      ],
      "stateMutability": "view",
      "type": "function"
    },
    {
      "inputs": [
        {
          "internalType": "address",
          "name": "_publicAddress",
          "type": "address"
        }
      ],
      "name": "checkUser",
      "outputs": [
        {
          "internalType": "string",
          "name": "",
          "type": "string"
        }
      ],
      "stateMutability": "view",
      "type": "function"
    },
    {
      "inputs": [
        {
          "internalType": "uint256",
          "name": "price",
          "type": "uint256"
        }
      ],
      "name": "createChain",
      "outputs": [],
      "stateMutability": "nonpayable",
      "type": "function"
    },
    {
      "inputs": [
        {
          "internalType": "string",
          "name": "role",
          "type": "string"
        }
      ],
      "name": "createUser",
      "outputs": [],
      "stateMutability": "nonpayable",
      "type": "function"
    },
    {
      "inputs": [
        {
          "internalType": "uint256",
          "name": "",
          "type": "uint256"
        }
      ],
      "name": "deployedChain",
      "outputs": [
        {
          "internalType": "address",
          "name": "",
          "type": "address"
        }
      ],
      "stateMutability": "view",
      "type": "function"
    },
    {
      "inputs": [],
      "name": "getDeployedChains",
      "outputs": [
        {
          "internalType": "address[]",
          "name": "",
          "type": "address[]"
        }
      ],
      "stateMutability": "view",
      "type": "function"
    },
    {
      "inputs": [
        {
          "internalType": "address",
          "name": "_publicAddress",
          "type": "address"
        }
      ],
      "name": "getOwnChains",
      "outputs": [
        {
          "internalType": "address[]",
          "name": "",
          "type": "address[]"
        }
      ],
      "stateMutability": "view",
      "type": "function"
    },
    {
      "inputs": [
        {
          "internalType": "address",
          "name": "",
          "type": "address"
        },
        {
          "internalType": "uint256",
          "name": "",
          "type": "uint256"
        }
      ],
      "name": "individualChains",
      "outputs": [
        {
          "internalType": "address",
          "name": "",
          "type": "address"
        }
      ],
      "stateMutability": "view",
      "type": "function"
    },
    {
      "inputs": [
        {
          "internalType": "address",
          "name": "_publicAddress",
          "type": "address"
        }
      ],
      "name": "isRegistered",
      "outputs": [
        {
          "internalType": "uint256",
          "name": "",
          "type": "uint256"
        }
      ],
      "stateMutability": "view",
      "type": "function"
    },
    {
      "inputs": [
        {
          "internalType": "address",
          "name": "",
          "type": "address"
        }
      ],
      "name": "registered",
      "outputs": [
        {
          "internalType": "uint256",
          "name": "",
          "type": "uint256"
        }
      ],
      "stateMutability": "view",
      "type": "function"
    },
    {
      "inputs": [],
      "name": "userId",
      "outputs": [
        {
          "internalType": "uint256",
          "name": "",
          "type": "uint256"
        }
      ],
      "stateMutability": "view",
      "type": "function"
    }
  ],
  "bytecode": "0x60806040526000805534801561001457600080fd5b50612c97806100246000396000f3fe60806040523480156200001157600080fd5b5060043610620000b85760003560e01c806358975919116200007b5780635897591914620001a0578063b2dd5c0714620001c2578063c3c5a54714620001f8578063c86c3302146200022e578063f6e2779a1462000264578063f6eeacbc146200028657620000b8565b80631e98fd1c14620000bd5780631e9d48cf14620000f45780634444536f146200012a5780634a6443c7146200014a578063507ffba51462000180575b600080fd5b620000db6004803603810190620000d5919062000b3b565b620002bc565b604051620000eb92919062000c56565b60405180910390f35b6200011260048036038101906200010c919062000cbb565b62000390565b60405162000121919062000ced565b60405180910390f35b62000148600480360381019062000142919062000b3b565b6200053a565b005b62000168600480360381019062000162919062000b3b565b62000680565b60405162000177919062000d11565b60405180910390f35b6200019e600480360381019062000198919062000e7f565b620006c0565b005b620001aa62000819565b604051620001b9919062000ee1565b60405180910390f35b620001e06004803603810190620001da919062000cbb565b6200081f565b604051620001ef919062000ee1565b60405180910390f35b62000216600480360381019062000210919062000cbb565b62000837565b60405162000225919062000ee1565b60405180910390f35b6200024c600480360381019062000246919062000efe565b62000880565b6040516200025b919062000d11565b60405180910390f35b6200026e620008cf565b6040516200027d919062001013565b60405180910390f35b620002a460048036038101906200029e919062000cbb565b6200095f565b604051620002b3919062001013565b60405180910390f35b60016020528060005260406000206000915090508060000160009054906101000a900473ffffffffffffffffffffffffffffffffffffffff1690806001018054620003079062001066565b80601f0160208091040260200160405190810160405280929190818152602001828054620003359062001066565b8015620003865780601f106200035a5761010080835404028352916020019162000386565b820191906000526020600020905b8154815290600101906020018083116200036857829003601f168201915b5050505050905082565b606060016200039f8362000837565b14620003e2576040517f08c379a0000000000000000000000000000000000000000000000000000000008152600401620003d990620010ec565b60405180910390fd5b60005b60005481101562000521576001600082815260200190815260200160002060000160009054906101000a900473ffffffffffffffffffffffffffffffffffffffff1673ffffffffffffffffffffffffffffffffffffffff168373ffffffffffffffffffffffffffffffffffffffff1614156200050b576001600082815260200190815260200160002060010180546200047e9062001066565b80601f0160208091040260200160405190810160405280929190818152602001828054620004ac9062001066565b8015620004fd5780601f10620004d157610100808354040283529160200191620004fd565b820191906000526020600020905b815481529060010190602001808311620004df57829003601f168201915b505050505091505062000535565b808062000518906200113d565b915050620003e5565b506040518060200160405280600081525090505b919050565b600081336040516200054c9062000a2e565b620005599291906200118b565b604051809103906000f08015801562000576573d6000803e3d6000fd5b5090506004819080600181540180825580915050600190039060005260206000200160009091909190916101000a81548173ffffffffffffffffffffffffffffffffffffffff021916908373ffffffffffffffffffffffffffffffffffffffff160217905550600260003373ffffffffffffffffffffffffffffffffffffffff1673ffffffffffffffffffffffffffffffffffffffff168152602001908152602001600020819080600181540180825580915050600190039060005260206000200160009091909190916101000a81548173ffffffffffffffffffffffffffffffffffffffff021916908373ffffffffffffffffffffffffffffffffffffffff1602179055505050565b600481815481106200069157600080fd5b906000526020600020016000915054906101000a900473ffffffffffffffffffffffffffffffffffffffff1681565b6000620006cd3362000837565b1462000710576040517f08c379a0000000000000000000000000000000000000000000000000000000008152600401620007079062001208565b60405180910390fd5b60405180604001604052803373ffffffffffffffffffffffffffffffffffffffff16815260200182815250600160008054815260200190815260200160002060008201518160000160006101000a81548173ffffffffffffffffffffffffffffffffffffffff021916908373ffffffffffffffffffffffffffffffffffffffff1602179055506020820151816001019080519060200190620007b492919062000a3c565b509050506001600360003373ffffffffffffffffffffffffffffffffffffffff1673ffffffffffffffffffffffffffffffffffffffff1681526020019081526020016000208190555060008081548092919062000811906200113d565b919050555050565b60005481565b60036020528060005260406000206000915090505481565b6000600360008373ffffffffffffffffffffffffffffffffffffffff1673ffffffffffffffffffffffffffffffffffffffff168152602001908152602001600020549050919050565b600260205281600052604060002081815481106200089d57600080fd5b906000526020600020016000915091509054906101000a900473ffffffffffffffffffffffffffffffffffffffff1681565b606060048054806020026020016040519081016040528092919081815260200182805480156200095557602002820191906000526020600020905b8160009054906101000a900473ffffffffffffffffffffffffffffffffffffffff1673ffffffffffffffffffffffffffffffffffffffff16815260200190600101908083116200090a575b5050505050905090565b6060600260008373ffffffffffffffffffffffffffffffffffffffff1673ffffffffffffffffffffffffffffffffffffffff16815260200190815260200160002080548060200260200160405190810160405280929190818152602001828054801562000a2257602002820191906000526020600020905b8160009054906101000a900473ffffffffffffffffffffffffffffffffffffffff1673ffffffffffffffffffffffffffffffffffffffff1681526020019060010190808311620009d7575b50505050509050919050565b611a37806200122b83390190565b82805462000a4a9062001066565b90600052602060002090601f01602090048101928262000a6e576000855562000aba565b82601f1062000a8957805160ff191683800117855562000aba565b8280016001018555821562000aba579182015b8281111562000ab957825182559160200191906001019062000a9c565b5b50905062000ac9919062000acd565b5090565b5b8082111562000ae857600081600090555060010162000ace565b5090565b6000604051905090565b600080fd5b600080fd5b6000819050919050565b62000b158162000b00565b811462000b2157600080fd5b50565b60008135905062000b358162000b0a565b92915050565b60006020828403121562000b545762000b5362000af6565b5b600062000b648482850162000b24565b91505092915050565b600073ffffffffffffffffffffffffffffffffffffffff82169050919050565b600062000b9a8262000b6d565b9050919050565b62000bac8162000b8d565b82525050565b600081519050919050565b600082825260208201905092915050565b60005b8381101562000bee57808201518184015260208101905062000bd1565b8381111562000bfe576000848401525b50505050565b6000601f19601f8301169050919050565b600062000c228262000bb2565b62000c2e818562000bbd565b935062000c4081856020860162000bce565b62000c4b8162000c04565b840191505092915050565b600060408201905062000c6d600083018562000ba1565b818103602083015262000c81818462000c15565b90509392505050565b62000c958162000b8d565b811462000ca157600080fd5b50565b60008135905062000cb58162000c8a565b92915050565b60006020828403121562000cd45762000cd362000af6565b5b600062000ce48482850162000ca4565b91505092915050565b6000602082019050818103600083015262000d09818462000c15565b905092915050565b600060208201905062000d28600083018462000ba1565b92915050565b600080fd5b600080fd5b7f4e487b7100000000000000000000000000000000000000000000000000000000600052604160045260246000fd5b62000d728262000c04565b810181811067ffffffffffffffff8211171562000d945762000d9362000d38565b5b80604052505050565b600062000da962000aec565b905062000db7828262000d67565b919050565b600067ffffffffffffffff82111562000dda5762000dd962000d38565b5b62000de58262000c04565b9050602081019050919050565b82818337600083830152505050565b600062000e1862000e128462000dbc565b62000d9d565b90508281526020810184848401111562000e375762000e3662000d33565b5b62000e4484828562000df2565b509392505050565b600082601f83011262000e645762000e6362000d2e565b5b813562000e7684826020860162000e01565b91505092915050565b60006020828403121562000e985762000e9762000af6565b5b600082013567ffffffffffffffff81111562000eb95762000eb862000afb565b5b62000ec78482850162000e4c565b91505092915050565b62000edb8162000b00565b82525050565b600060208201905062000ef8600083018462000ed0565b92915050565b6000806040838503121562000f185762000f1762000af6565b5b600062000f288582860162000ca4565b925050602062000f3b8582860162000b24565b9150509250929050565b600081519050919050565b600082825260208201905092915050565b6000819050602082019050919050565b62000f7c8162000b8d565b82525050565b600062000f90838362000f71565b60208301905092915050565b6000602082019050919050565b600062000fb68262000f45565b62000fc2818562000f50565b935062000fcf8362000f61565b8060005b838110156200100657815162000fea888262000f82565b975062000ff78362000f9c565b92505060018101905062000fd3565b5085935050505092915050565b600060208201905081810360008301526200102f818462000fa9565b905092915050565b7f4e487b7100000000000000000000000000000000000000000000000000000000600052602260045260246000fd5b600060028204905060018216806200107f57607f821691505b6020821081141562001096576200109562001037565b5b50919050565b7f55736572206e6f74207265676973746572656421000000000000000000000000600082015250565b6000620010d460148362000bbd565b9150620010e1826200109c565b602082019050919050565b600060208201905081810360008301526200110781620010c5565b9050919050565b7f4e487b7100000000000000000000000000000000000000000000000000000000600052601160045260246000fd5b60006200114a8262000b00565b91507fffffffffffffffffffffffffffffffffffffffffffffffffffffffffffffffff82141562001180576200117f6200110e565b5b600182019050919050565b6000604082019050620011a2600083018562000ed0565b620011b1602083018462000ba1565b9392505050565b7f5573657220616c72656164792072656769737465726564210000000000000000600082015250565b6000620011f060188362000bbd565b9150620011fd82620011b8565b602082019050919050565b600060208201905081810360008301526200122381620011e1565b905091905056fe60806040523480156200001157600080fd5b5060405162001a3738038062001a37833981810160405281019062000037919062000280565b806000800160006101000a81548173ffffffffffffffffffffffffffffffffffffffff021916908373ffffffffffffffffffffffffffffffffffffffff16021790555081600060010181905550426000600c018190555080600060070160006101000a81548173ffffffffffffffffffffffffffffffffffffffff021916908373ffffffffffffffffffffffffffffffffffffffff1602179055506040518060400160405280600981526020017f48617276657374656400000000000000000000000000000000000000000000008152506000600b019080519060200190620001229291906200012b565b5050506200032c565b8280546200013990620002f6565b90600052602060002090601f0160209004810192826200015d5760008555620001a9565b82601f106200017857805160ff1916838001178555620001a9565b82800160010185558215620001a9579182015b82811115620001a85782518255916020019190600101906200018b565b5b509050620001b89190620001bc565b5090565b5b80821115620001d7576000816000905550600101620001bd565b5090565b600080fd5b6000819050919050565b620001f581620001e0565b81146200020157600080fd5b50565b6000815190506200021581620001ea565b92915050565b600073ffffffffffffffffffffffffffffffffffffffff82169050919050565b600062000248826200021b565b9050919050565b6200025a816200023b565b81146200026657600080fd5b50565b6000815190506200027a816200024f565b92915050565b600080604083850312156200029a5762000299620001db565b5b6000620002aa8582860162000204565b9250506020620002bd8582860162000269565b9150509250929050565b7f4e487b7100000000000000000000000000000000000000000000000000000000600052602260045260246000fd5b600060028204905060018216806200030f57607f821691505b60208210811415620003265762000325620002c7565b5b50919050565b6116fb806200033c6000396000f3fe6080604052600436106100915760003560e01c806375619ab51161005957806375619ab514610160578063784a748814610189578063b8528e5714610193578063bf9ce952146101af578063d57909ff146101e557610091565b80632c215998146100965780634051ddac146100bf578063492cc769146100f25780634a1f61251461010e578063620c0c4b14610137575b600080fd5b3480156100a257600080fd5b506100bd60048036038101906100b89190610e24565b61020e565b005b3480156100cb57600080fd5b506100d4610235565b6040516100e999989796959493929190610f4f565b60405180910390f35b61010c60048036038101906101079190610e24565b6103c0565b005b34801561011a57600080fd5b506101356004803603810190610130919061100f565b610662565b005b34801561014357600080fd5b5061015e6004803603810190610159919061100f565b6106a9565b005b34801561016c57600080fd5b506101876004803603810190610182919061100f565b6106f0565b005b610191610737565b005b6101ad60048036038101906101a89190611068565b6108c9565b005b3480156101bb57600080fd5b506101c4610a66565b6040516101dc9c9b9a999897969594939291906110b6565b60405180910390f35b3480156101f157600080fd5b5061020c60048036038101906102079190611068565b610bdc565b005b806000600b019080519060200190610227929190610c27565b50426000600c018190555050565b60008060008060008060006060600080600101546000600501546000800160009054906101000a900473ffffffffffffffffffffffffffffffffffffffff16600060070160009054906101000a900473ffffffffffffffffffffffffffffffffffffffff16600060080160009054906101000a900473ffffffffffffffffffffffffffffffffffffffff16600060090160009054906101000a900473ffffffffffffffffffffffffffffffffffffffff166000600a0160009054906101000a900473ffffffffffffffffffffffffffffffffffffffff166000600b016000600c0154818054610323906111a6565b80601f016020809104026020016040519081016040528092919081815260200182805461034f906111a6565b801561039c5780601f106103715761010080835404028352916020019161039c565b820191906000526020600020905b81548152906001019060200180831161037f57829003601f168201915b50505050509150985098509850985098509850985098509850909192939495969798565b6040516020016103cf9061122f565b60405160208183030381529060405280519060200120816040516020016103f69190611275565b604051602081830303815290604052805190602001201415610426576000600301546000600601819055506104cd565b604051602001610435906112d8565b604051602081830303815290604052805190602001208160405160200161045c9190611275565b6040516020818303038152906040528051906020012014156104a4576064604b60006003015461048c919061131c565b61049691906113a5565b6000600601819055506104cc565b606460326000600301546104b8919061131c565b6104c291906113a5565b6000600601819055505b5b6040516020016104dc90611422565b604051602081830303815290604052805190602001206000600b0160405160200161050791906114cb565b604051602081830303815290604052805190602001201461055d576040517f08c379a00000000000000000000000000000000000000000000000000000000081526004016105549061152e565b60405180910390fd5b60006006015434101561056f57600080fd5b600060090160009054906101000a900473ffffffffffffffffffffffffffffffffffffffff1673ffffffffffffffffffffffffffffffffffffffff166108fc6000600601549081150290604051600060405180830381858888f193505050501580156105df573d6000803e3d6000fd5b506105e9336106a9565b6001600060040160003373ffffffffffffffffffffffffffffffffffffffff1673ffffffffffffffffffffffffffffffffffffffff16815260200190815260200160002060006101000a81548160ff0219169083151502179055506000600501600081548092919061065a9061154e565b919050555050565b80600060090160006101000a81548173ffffffffffffffffffffffffffffffffffffffff021916908373ffffffffffffffffffffffffffffffffffffffff16021790555050565b806000600a0160006101000a81548173ffffffffffffffffffffffffffffffffffffffff021916908373ffffffffffffffffffffffffffffffffffffffff16021790555050565b80600060080160006101000a81548173ffffffffffffffffffffffffffffffffffffffff021916908373ffffffffffffffffffffffffffffffffffffffff16021790555050565b60006001015434101561077f576040517f08c379a0000000000000000000000000000000000000000000000000000000008152600401610776906115e3565b60405180910390fd5b60405160200161078e9061164f565b604051602081830303815290604052805190602001206000600b016040516020016107b991906114cb565b604051602081830303815290604052805190602001201461080f576040517f08c379a00000000000000000000000000000000000000000000000000000000081526004016108069061152e565b60405180910390fd5b600060070160009054906101000a900473ffffffffffffffffffffffffffffffffffffffff1673ffffffffffffffffffffffffffffffffffffffff166108fc6000600101549081150290604051600060405180830381858888f1935050505015801561087f573d6000803e3d6000fd5b50610889336106f0565b6108c76040518060400160405280600681526020017f626f75676874000000000000000000000000000000000000000000000000000081525061020e565b565b600060020154341015610911576040517f08c379a0000000000000000000000000000000000000000000000000000000008152600401610908906115e3565b60405180910390fd5b604051602001610920906116b0565b604051602081830303815290604052805190602001206000600b0160405160200161094b91906114cb565b60405160208183030381529060405280519060200120146109a1576040517f08c379a00000000000000000000000000000000000000000000000000000000081526004016109989061152e565b60405180910390fd5b80600060030181905550600060080160009054906101000a900473ffffffffffffffffffffffffffffffffffffffff1673ffffffffffffffffffffffffffffffffffffffff166108fc6000600201549081150290604051600060405180830381858888f19350505050158015610a1b573d6000803e3d6000fd5b50610a2533610662565b610a636040518060400160405280600881526020017f726563656976656400000000000000000000000000000000000000000000000081525061020e565b50565b60008060000160009054906101000a900473ffffffffffffffffffffffffffffffffffffffff16908060010154908060020154908060030154908060050154908060060154908060070160009054906101000a900473ffffffffffffffffffffffffffffffffffffffff16908060080160009054906101000a900473ffffffffffffffffffffffffffffffffffffffff16908060090160009054906101000a900473ffffffffffffffffffffffffffffffffffffffff169080600a0160009054906101000a900473ffffffffffffffffffffffffffffffffffffffff169080600b018054610b53906111a6565b80601f0160208091040260200160405190810160405280929190818152602001828054610b7f906111a6565b8015610bcc5780601f10610ba157610100808354040283529160200191610bcc565b820191906000526020600020905b815481529060010190602001808311610baf57829003601f168201915b50505050509080600c015490508c565b80600060020181905550610c246040518060400160405280600781526020017f736869707065640000000000000000000000000000000000000000000000000081525061020e565b50565b828054610c33906111a6565b90600052602060002090601f016020900481019282610c555760008555610c9c565b82601f10610c6e57805160ff1916838001178555610c9c565b82800160010185558215610c9c579182015b82811115610c9b578251825591602001919060010190610c80565b5b509050610ca99190610cad565b5090565b5b80821115610cc6576000816000905550600101610cae565b5090565b6000604051905090565b600080fd5b600080fd5b600080fd5b600080fd5b6000601f19601f8301169050919050565b7f4e487b7100000000000000000000000000000000000000000000000000000000600052604160045260246000fd5b610d3182610ce8565b810181811067ffffffffffffffff82111715610d5057610d4f610cf9565b5b80604052505050565b6000610d63610cca565b9050610d6f8282610d28565b919050565b600067ffffffffffffffff821115610d8f57610d8e610cf9565b5b610d9882610ce8565b9050602081019050919050565b82818337600083830152505050565b6000610dc7610dc284610d74565b610d59565b905082815260208101848484011115610de357610de2610ce3565b5b610dee848285610da5565b509392505050565b600082601f830112610e0b57610e0a610cde565b5b8135610e1b848260208601610db4565b91505092915050565b600060208284031215610e3a57610e39610cd4565b5b600082013567ffffffffffffffff811115610e5857610e57610cd9565b5b610e6484828501610df6565b91505092915050565b6000819050919050565b610e8081610e6d565b82525050565b600073ffffffffffffffffffffffffffffffffffffffff82169050919050565b6000610eb182610e86565b9050919050565b610ec181610ea6565b82525050565b600081519050919050565b600082825260208201905092915050565b60005b83811015610f01578082015181840152602081019050610ee6565b83811115610f10576000848401525b50505050565b6000610f2182610ec7565b610f2b8185610ed2565b9350610f3b818560208601610ee3565b610f4481610ce8565b840191505092915050565b600061012082019050610f65600083018c610e77565b610f72602083018b610e77565b610f7f604083018a610eb8565b610f8c6060830189610eb8565b610f996080830188610eb8565b610fa660a0830187610eb8565b610fb360c0830186610eb8565b81810360e0830152610fc58185610f16565b9050610fd5610100830184610e77565b9a9950505050505050505050565b610fec81610ea6565b8114610ff757600080fd5b50565b60008135905061100981610fe3565b92915050565b60006020828403121561102557611024610cd4565b5b600061103384828501610ffa565b91505092915050565b61104581610e6d565b811461105057600080fd5b50565b6000813590506110628161103c565b92915050565b60006020828403121561107e5761107d610cd4565b5b600061108c84828501611053565b91505092915050565b60006110a082610e86565b9050919050565b6110b081611095565b82525050565b6000610180820190506110cc600083018f610eb8565b6110d9602083018e610e77565b6110e6604083018d610e77565b6110f3606083018c610e77565b611100608083018b610e77565b61110d60a083018a610e77565b61111a60c08301896110a7565b61112760e08301886110a7565b6111356101008301876110a7565b611143610120830186610eb8565b8181036101408301526111568185610f16565b9050611166610160830184610e77565b9d9c50505050505050505050505050565b7f4e487b7100000000000000000000000000000000000000000000000000000000600052602260045260246000fd5b600060028204905060018216806111be57607f821691505b602082108114156111d2576111d1611177565b5b50919050565b600081905092915050565b7f6869676800000000000000000000000000000000000000000000000000000000600082015250565b60006112196004836111d8565b9150611224826111e3565b600482019050919050565b600061123a8261120c565b9150819050919050565b600061124f82610ec7565b61125981856111d8565b9350611269818560208601610ee3565b80840191505092915050565b60006112818284611244565b915081905092915050565b7f6d656469756d0000000000000000000000000000000000000000000000000000600082015250565b60006112c26006836111d8565b91506112cd8261128c565b600682019050919050565b60006112e3826112b5565b9150819050919050565b7f4e487b7100000000000000000000000000000000000000000000000000000000600052601160045260246000fd5b600061132782610e6d565b915061133283610e6d565b9250817fffffffffffffffffffffffffffffffffffffffffffffffffffffffffffffffff048311821515161561136b5761136a6112ed565b5b828202905092915050565b7f4e487b7100000000000000000000000000000000000000000000000000000000600052601260045260246000fd5b60006113b082610e6d565b91506113bb83610e6d565b9250826113cb576113ca611376565b5b828204905092915050565b7f7265636569766564000000000000000000000000000000000000000000000000600082015250565b600061140c6008836111d8565b9150611417826113d6565b600882019050919050565b600061142d826113ff565b9150819050919050565b60008190508160005260206000209050919050565b60008154611459816111a6565b61146381866111d8565b9450600182166000811461147e576001811461148f576114c2565b60ff198316865281860193506114c2565b61149885611437565b60005b838110156114ba5781548189015260018201915060208101905061149b565b838801955050505b50505092915050565b60006114d7828461144c565b915081905092915050565b7f53746174757320696e636f727265637421000000000000000000000000000000600082015250565b6000611518601183610ed2565b9150611523826114e2565b602082019050919050565b600060208201905081810360008301526115478161150b565b9050919050565b600061155982610e6d565b91507fffffffffffffffffffffffffffffffffffffffffffffffffffffffffffffffff82141561158c5761158b6112ed565b5b600182019050919050565b7f4e6f742073756666696369656e74000000000000000000000000000000000000600082015250565b60006115cd600e83610ed2565b91506115d882611597565b602082019050919050565b600060208201905081810360008301526115fc816115c0565b9050919050565b7f73656c6c00000000000000000000000000000000000000000000000000000000600082015250565b60006116396004836111d8565b915061164482611603565b600482019050919050565b600061165a8261162c565b9150819050919050565b7f7368697070656400000000000000000000000000000000000000000000000000600082015250565b600061169a6007836111d8565b91506116a582611664565b600782019050919050565b60006116bb8261168d565b915081905091905056fea26469706673582212202c553794eef06d52f5ff06c568b3063cbc86f04ccbc7b891a800c049b92955dc64736f6c634300080a0033a2646970667358221220cc774af50199b39f52dc39d994808060f5511733fbf65b6125c1cf8545527eaa64736f6c634300080a0033",
  "linkReferences": {},
  "deployedLinkReferences": {}
}